{
  "contractName": "EtherPatron",
  "abi": [
    {
      "constant": false,
      "inputs": [],
      "name": "renounceOwnership",
      "outputs": [],
      "payable": false,
      "stateMutability": "nonpayable",
      "type": "function"
    },
    {
      "constant": true,
      "inputs": [],
      "name": "owner",
      "outputs": [
        {
          "name": "",
          "type": "address"
        }
      ],
      "payable": false,
      "stateMutability": "view",
      "type": "function"
    },
    {
      "constant": true,
      "inputs": [],
      "name": "isOwner",
      "outputs": [
        {
          "name": "",
          "type": "bool"
        }
      ],
      "payable": false,
      "stateMutability": "view",
      "type": "function"
    },
    {
      "constant": false,
      "inputs": [
        {
          "name": "newOwner",
          "type": "address"
        }
      ],
      "name": "transferOwnership",
      "outputs": [],
      "payable": false,
      "stateMutability": "nonpayable",
      "type": "function"
    },
    {
      "inputs": [
        {
          "name": "_startTimestamp",
          "type": "uint256"
        },
        {
          "name": "_periodDuration",
          "type": "uint256"
        },
        {
          "name": "_periodTarget",
          "type": "uint256"
        },
        {
          "name": "_purpose",
          "type": "bytes32"
        }
      ],
      "payable": false,
      "stateMutability": "nonpayable",
      "type": "constructor"
    },
    {
      "anonymous": false,
      "inputs": [
        {
          "indexed": true,
          "name": "previousOwner",
          "type": "address"
        },
        {
          "indexed": true,
          "name": "newOwner",
          "type": "address"
        }
      ],
      "name": "OwnershipTransferred",
      "type": "event"
    },
    {
      "constant": false,
      "inputs": [
        {
          "name": "_periods",
          "type": "uint8"
        }
      ],
      "name": "donate",
      "outputs": [],
      "payable": true,
      "stateMutability": "payable",
      "type": "function"
    },
    {
      "constant": false,
      "inputs": [
        {
          "name": "_periods",
          "type": "uint8"
        }
      ],
      "name": "cancelDonations",
      "outputs": [],
      "payable": false,
      "stateMutability": "nonpayable",
      "type": "function"
    },
    {
      "constant": false,
      "inputs": [
        {
          "name": "_minDonation",
          "type": "uint256"
        }
      ],
      "name": "setMinDonation",
      "outputs": [],
      "payable": false,
      "stateMutability": "nonpayable",
      "type": "function"
    },
    {
      "constant": false,
      "inputs": [
        {
          "name": "_periodTarget",
          "type": "uint256"
        }
      ],
      "name": "setPeriodTarget",
      "outputs": [],
      "payable": false,
      "stateMutability": "nonpayable",
      "type": "function"
    },
    {
      "constant": false,
      "inputs": [
        {
          "name": "_purpose",
          "type": "bytes32"
        }
      ],
      "name": "setPurpose",
      "outputs": [],
      "payable": false,
      "stateMutability": "nonpayable",
      "type": "function"
    },
    {
      "constant": false,
      "inputs": [],
      "name": "withdrawPreviousPeriods",
      "outputs": [],
      "payable": false,
      "stateMutability": "nonpayable",
      "type": "function"
    },
    {
      "constant": false,
      "inputs": [],
      "name": "withdrawCurrentPeriod",
      "outputs": [],
      "payable": false,
      "stateMutability": "nonpayable",
      "type": "function"
    },
    {
      "constant": true,
      "inputs": [],
      "name": "getPeriodDuration",
      "outputs": [
        {
          "name": "",
          "type": "uint256"
        }
      ],
      "payable": false,
      "stateMutability": "view",
      "type": "function"
    },
    {
      "constant": true,
      "inputs": [],
      "name": "getPeriodTimeLeft",
      "outputs": [
        {
          "name": "",
          "type": "uint256"
        }
      ],
      "payable": false,
      "stateMutability": "view",
      "type": "function"
    },
    {
      "constant": true,
      "inputs": [],
      "name": "getMinDonation",
      "outputs": [
        {
          "name": "",
          "type": "uint256"
        }
      ],
      "payable": false,
      "stateMutability": "view",
      "type": "function"
    },
    {
      "constant": true,
      "inputs": [
        {
          "name": "_address",
          "type": "address"
        }
      ],
      "name": "getDonationsOfAddress",
      "outputs": [
        {
          "name": "",
          "type": "uint256"
        }
      ],
      "payable": false,
      "stateMutability": "view",
      "type": "function"
    },
    {
      "constant": true,
      "inputs": [],
      "name": "getDonators",
      "outputs": [
        {
          "name": "",
          "type": "address[]"
        }
      ],
      "payable": false,
      "stateMutability": "view",
      "type": "function"
    },
    {
      "constant": true,
      "inputs": [
        {
          "name": "_address",
          "type": "address"
        },
        {
          "name": "_periodId",
          "type": "uint256"
        }
      ],
      "name": "getDonationInPeriod",
      "outputs": [
        {
          "name": "",
          "type": "uint256"
        }
      ],
      "payable": false,
      "stateMutability": "view",
      "type": "function"
    },
    {
      "constant": true,
      "inputs": [],
      "name": "getCurrentPeriod",
      "outputs": [
        {
          "name": "",
          "type": "uint256"
        }
      ],
      "payable": false,
      "stateMutability": "view",
      "type": "function"
    }
  ],
  "bytecode": "0x608060405266038d7ea4c68000600555600060065534801561002057600080fd5b506040516080806113f28339810180604052608081101561004057600080fd5b8101908080519060200190929190805190602001909291908051906020019092919080519060200190929190505050336000806101000a81548173ffffffffffffffffffffffffffffffffffffffff021916908373ffffffffffffffffffffffffffffffffffffffff1602179055506000809054906101000a900473ffffffffffffffffffffffffffffffffffffffff1673ffffffffffffffffffffffffffffffffffffffff16600073ffffffffffffffffffffffffffffffffffffffff167f8be0079c531659141344cd1fd0a4f28419497f9722a3daafe3b4186f6b6457e060405160405180910390a383600181905550826002819055508060048190555081600381905550505050506112988061015a6000396000f3fe608060405260043610610126576000357c0100000000000000000000000000000000000000000000000000000000900480639f95ec99116100b2578063bf1482fa11610081578063bf1482fa146103fc578063d065bd7214610468578063e5b0b36b14610493578063f2fde38b146104c4578063fb0c42681461051557610126565b80639f95ec9914610306578063a589085d14610331578063a9f77e2414610396578063b36fec57146103d157610126565b8063715018a6116100f9578063715018a61461021757806383a6595f1461022e5780638da5cb5b146102695780638f32d59b146102c057806395af66df146102ef57610126565b8063086146d21461012b5780632668357b1461015657806362a7676e1461016d57806366c3601c146101dc575b600080fd5b34801561013757600080fd5b50610140610553565b6040518082815260200191505060405180910390f35b34801561016257600080fd5b5061016b6105fd565b005b34801561017957600080fd5b506101c66004803603604081101561019057600080fd5b81019080803573ffffffffffffffffffffffffffffffffffffffff16906020019092919080359060200190929190505050610698565b6040518082815260200191505060405180910390f35b3480156101e857600080fd5b50610215600480360360208110156101ff57600080fd5b810190808035906020019092919050505061071f565b005b34801561022357600080fd5b5061022c61073c565b005b34801561023a57600080fd5b506102676004803603602081101561025157600080fd5b810190808035906020019092919050505061080e565b005b34801561027557600080fd5b5061027e61082b565b604051808273ffffffffffffffffffffffffffffffffffffffff1673ffffffffffffffffffffffffffffffffffffffff16815260200191505060405180910390f35b3480156102cc57600080fd5b506102d5610854565b604051808215151515815260200191505060405180910390f35b3480156102fb57600080fd5b506103046108ab565b005b34801561031257600080fd5b5061031b610993565b6040518082815260200191505060405180910390f35b34801561033d57600080fd5b506103806004803603602081101561035457600080fd5b81019080803573ffffffffffffffffffffffffffffffffffffffff1690602001909291905050506109f4565b6040518082815260200191505060405180910390f35b3480156103a257600080fd5b506103cf600480360360208110156103b957600080fd5b8101908080359060200190929190505050610ac6565b005b3480156103dd57600080fd5b506103e6610ae3565b6040518082815260200191505060405180910390f35b34801561040857600080fd5b50610411610aed565b6040518080602001828103825283818151815260200191508051906020019060200280838360005b83811015610454578082015181840152602081019050610439565b505050509050019250505060405180910390f35b34801561047457600080fd5b5061047d610b7b565b6040518082815260200191505060405180910390f35b6104c2600480360360208110156104a957600080fd5b81019080803560ff169060200190929190505050610b85565b005b3480156104d057600080fd5b50610513600480360360208110156104e757600080fd5b81019080803573ffffffffffffffffffffffffffffffffffffffff169060200190929190505050610d8e565b005b34801561052157600080fd5b506105516004803603602081101561053857600080fd5b81019080803560ff169060200190929190505050610dad565b005b600042600154111515156105cf576040517f08c379a000000000000000000000000000000000000000000000000000000000815260040180806020018281038252601e8152602001807f54686520636f6e7472616374206973206e6f742061637469766520796574000081525060200191505060405180910390fd5b6105f86002546105ea60015442610f4190919063ffffffff16565b610f6390919063ffffffff16565b905090565b610605610854565b151561061057600080fd5b600061061a610553565b9050600060076000838152602001908152602001600020549050600060076000848152602001908152602001600020819055503373ffffffffffffffffffffffffffffffffffffffff166108fc829081150290604051600060405180830381858888f19350505050158015610693573d6000803e3d6000fd5b505050565b6000600860008484604051602001808373ffffffffffffffffffffffffffffffffffffffff1673ffffffffffffffffffffffffffffffffffffffff166c010000000000000000000000000281526014018281526020019250505060405160208183030381529060405280519060200120815260200190815260200160002054905092915050565b610727610854565b151561073257600080fd5b8060038190555050565b610744610854565b151561074f57600080fd5b600073ffffffffffffffffffffffffffffffffffffffff166000809054906101000a900473ffffffffffffffffffffffffffffffffffffffff1673ffffffffffffffffffffffffffffffffffffffff167f8be0079c531659141344cd1fd0a4f28419497f9722a3daafe3b4186f6b6457e060405160405180910390a360008060006101000a81548173ffffffffffffffffffffffffffffffffffffffff021916908373ffffffffffffffffffffffffffffffffffffffff160217905550565b610816610854565b151561082157600080fd5b8060058190555050565b60008060009054906101000a900473ffffffffffffffffffffffffffffffffffffffff16905090565b60008060009054906101000a900473ffffffffffffffffffffffffffffffffffffffff1673ffffffffffffffffffffffffffffffffffffffff163373ffffffffffffffffffffffffffffffffffffffff1614905090565b6108b3610854565b15156108be57600080fd5b60006108c8610553565b90506000809050600060065490505b8281101561092d57610905600760008381526020019081526020016000205483610f8d90919063ffffffff16565b91506000600760008381526020019081526020016000208190555080806001019150506108d7565b50610942600183610f4190919063ffffffff16565b6006819055503373ffffffffffffffffffffffffffffffffffffffff166108fc829081150290604051600060405180830381858888f1935050505015801561098e573d6000803e3d6000fd5b505050565b6000806109d96109c86002546109ba60016109ac610553565b610f8d90919063ffffffff16565b610fae90919063ffffffff16565b600154610f8d90919063ffffffff16565b90506109ee4282610f4190919063ffffffff16565b91505090565b6000806109ff610553565b9050600080905060008090505b8281111515610abb57600085828501604051602001808373ffffffffffffffffffffffffffffffffffffffff1673ffffffffffffffffffffffffffffffffffffffff166c0100000000000000000000000002815260140182815260200192505050604051602081830303815290604052805190602001209050610aab600860008381526020019081526020016000205484610f8d90919063ffffffff16565b9250508080600101915050610a0c565b508092505050919050565b610ace610854565b1515610ad957600080fd5b8060048190555050565b6000600254905090565b60606009805480602002602001604051908101604052809291908181526020018280548015610b7157602002820191906000526020600020905b8160009054906101000a900473ffffffffffffffffffffffffffffffffffffffff1673ffffffffffffffffffffffffffffffffffffffff1681526020019060010190808311610b27575b5050505050905090565b6000600554905090565b348160ff166005540211151515610be7576040517f08c379a00000000000000000000000000000000000000000000000000000000081526004018080602001828103825260238152602001806111fb6023913960400191505060405180910390fd5b8060ff166000101515610c45576040517f08c379a000000000000000000000000000000000000000000000000000000000815260040180806020018281038252602281526020018061121e6022913960400191505060405180910390fd5b6000610c4f610553565b90506000610c698360ff1634610f6390919063ffffffff16565b905060008090505b8360ff168160ff161015610d805760008160ff1684019050610caf836007600084815260200190815260200160002054610f8d90919063ffffffff16565b600760008381526020019081526020016000208190555060003382604051602001808373ffffffffffffffffffffffffffffffffffffffff1673ffffffffffffffffffffffffffffffffffffffff166c0100000000000000000000000002815260140182815260200192505050604051602081830303815290604052805190602001209050610d5a846008600084815260200190815260200160002054610f8d90919063ffffffff16565b600860008381526020019081526020016000208190555050508080600101915050610c71565b50610d89610fec565b505050565b610d96610854565b1515610da157600080fd5b610daa81611100565b50565b8060ff166000101515610e0b576040517f08c379a000000000000000000000000000000000000000000000000000000000815260040180806020018281038252602d815260200180611240602d913960400191505060405180910390fd5b6000610e15610553565b905060008090506000600190505b8360ff168160ff16111515610ef4576000338260ff168501604051602001808373ffffffffffffffffffffffffffffffffffffffff1673ffffffffffffffffffffffffffffffffffffffff166c0100000000000000000000000002815260140182815260200192505050604051602081830303815290604052805190602001209050610ecb600860008381526020019081526020016000205484610f8d90919063ffffffff16565b925060006008600083815260200190815260200160002081905550508080600101915050610e23565b503373ffffffffffffffffffffffffffffffffffffffff166108fc829081150290604051600060405180830381858888f19350505050158015610f3b573d6000803e3d6000fd5b50505050565b6000828211151515610f5257600080fd5b600082840390508091505092915050565b60008082111515610f7357600080fd5b60008284811515610f8057fe5b0490508091505092915050565b6000808284019050838110151515610fa457600080fd5b8091505092915050565b600080831415610fc15760009050610fe6565b60008284029050828482811515610fd457fe5b04141515610fe157600080fd5b809150505b92915050565b600a60003373ffffffffffffffffffffffffffffffffffffffff1673ffffffffffffffffffffffffffffffffffffffff16815260200190815260200160002060009054906101000a900460ff1615156110fe576001600a60003373ffffffffffffffffffffffffffffffffffffffff1673ffffffffffffffffffffffffffffffffffffffff16815260200190815260200160002060006101000a81548160ff02191690831515021790555060093390806001815401808255809150509060018203906000526020600020016000909192909190916101000a81548173ffffffffffffffffffffffffffffffffffffffff021916908373ffffffffffffffffffffffffffffffffffffffff160217905550505b565b600073ffffffffffffffffffffffffffffffffffffffff168173ffffffffffffffffffffffffffffffffffffffff161415151561113c57600080fd5b8073ffffffffffffffffffffffffffffffffffffffff166000809054906101000a900473ffffffffffffffffffffffffffffffffffffffff1673ffffffffffffffffffffffffffffffffffffffff167f8be0079c531659141344cd1fd0a4f28419497f9722a3daafe3b4186f6b6457e060405160405180910390a3806000806101000a81548173ffffffffffffffffffffffffffffffffffffffff021916908373ffffffffffffffffffffffffffffffffffffffff1602179055505056fe446f6e6174696f6e206973206c657373207468616e206d696e696d756d2076616c75654d75737420646f6e61746520746f206174206c65617374206f6e6520706572696f644d75737420726566756e6420646f6e6174696f6e2066726f6d206174206c65617374206f6e6520706572696f64a165627a7a723058205ad16246affd193cc312f84b2a84e345bbf248e7e5a8e506c63c509866ac62730029",
  "source": "pragma solidity ^0.5.2;\r\n\r\nimport \"../node_modules/openzeppelin-solidity/contracts/ownership/Ownable.sol\";\r\nimport \"../node_modules/openzeppelin-solidity/contracts/math/SafeMath.sol\";\r\n\r\n\r\ncontract EtherPatron is Ownable {\r\n    uint256 private startTimestamp;\r\n    uint256 private periodDuration;\r\n    uint256 private periodTarget; \r\n    bytes32 private purpose;\r\n    \r\n    uint256 private minDonation = 0.001 ether;    \r\n\r\n    uint256 private lastWithdrawnPeriod = 0;   \r\n    \r\n\r\n    using SafeMath for uint256;\r\n\r\n    mapping(uint256 => uint256) private periodToAllowedWithdrawal; \r\n\r\n    mapping(bytes32 => uint256) private hashedDonations;\r\n\r\n    address[] private donators;\r\n    mapping(address => bool) private addressToIsDonator;\r\n    \r\n    constructor(uint256 _startTimestamp, uint256 _periodDuration, uint256 _periodTarget, bytes32 _purpose) public {\r\n        startTimestamp = _startTimestamp;\r\n        periodDuration = _periodDuration;\r\n        purpose = _purpose;\r\n        periodTarget = _periodTarget;\r\n    }\r\n\r\n    function donate(uint8 _periods) external payable {\r\n        require(minDonation * _periods <= msg.value, \"Donation is less than minimum value\");\r\n        require(0 < _periods, \"Must donate to at least one period\");\r\n\r\n        uint256 currentPeriod = getCurrentPeriod();        \r\n        uint256 donationPerPeriod = msg.value.div(_periods);\r\n\r\n        for (uint8 i = 0; i < _periods; i++) {            \r\n            uint256 targetPeriod = currentPeriod + i;\r\n            periodToAllowedWithdrawal[targetPeriod] = periodToAllowedWithdrawal[targetPeriod].add(donationPerPeriod);\r\n\r\n            bytes32 hashedDonation = keccak256(abi.encodePacked(msg.sender, targetPeriod));\r\n            hashedDonations[hashedDonation] = hashedDonations[hashedDonation].add(donationPerPeriod);\r\n        }\r\n\r\n        addDonatorToList();\r\n    }\r\n\r\n    function cancelDonations(uint8 _periods) external {\r\n        require(0 < _periods, \"Must refund donation from at least one period\");\r\n\r\n        uint256 currentPeriod = getCurrentPeriod();\r\n        uint256 sumToRefund = 0;\r\n\r\n        // Starts at 1 >> can't refund current period\r\n        for (uint8 i = 1; i <= _periods; i++) {\r\n            bytes32 hashedDonation = keccak256(abi.encodePacked(msg.sender, currentPeriod + i));\r\n            sumToRefund = sumToRefund.add(hashedDonations[hashedDonation]);\r\n            hashedDonations[hashedDonation] = 0;\r\n        }\r\n\r\n        msg.sender.transfer(sumToRefund);\r\n    }\r\n\r\n    function setMinDonation(uint256 _minDonation) external onlyOwner {\r\n        minDonation = _minDonation;\r\n    }\r\n\r\n    function setPeriodTarget(uint256 _periodTarget) external onlyOwner {\r\n        periodTarget = _periodTarget;\r\n    }\r\n\r\n    function setPurpose(bytes32 _purpose) external onlyOwner {\r\n        purpose = _purpose;\r\n    }\r\n\r\n    function withdrawPreviousPeriods() external onlyOwner {\r\n        uint256 currentPeriod = getCurrentPeriod();\r\n        uint256 sumToWithdraw = 0;\r\n\r\n        for (uint256 i = lastWithdrawnPeriod; i < currentPeriod; i++) {\r\n            sumToWithdraw = sumToWithdraw.add(periodToAllowedWithdrawal[i]);\r\n            periodToAllowedWithdrawal[i] = 0;\r\n        }       \r\n\r\n        lastWithdrawnPeriod = currentPeriod.sub(1); \r\n        msg.sender.transfer(sumToWithdraw);\r\n    }\r\n\r\n    function withdrawCurrentPeriod() external onlyOwner {\r\n        uint256 currentPeriod = getCurrentPeriod();\r\n        uint256 sumToWithdraw = periodToAllowedWithdrawal[currentPeriod];\r\n        periodToAllowedWithdrawal[currentPeriod] = 0;\r\n        msg.sender.transfer(sumToWithdraw);\r\n    }\r\n\r\n    function getPeriodDuration() external view returns (uint256) {\r\n        return periodDuration;\r\n    }\r\n\r\n    function getPeriodTimeLeft() external view returns (uint256) {\r\n        uint256 endOfThisPeriod = startTimestamp.add(getCurrentPeriod().add(1).mul(periodDuration));\r\n        return endOfThisPeriod.sub(now);       \r\n    }\r\n\r\n    function getMinDonation() external view returns (uint256) {\r\n        return minDonation;\r\n    }\r\n\r\n    function getDonationsOfAddress(address _address) external view returns (uint256) {\r\n        uint256 currentPeriod = getCurrentPeriod();\r\n        uint256 totalDonated = 0;\r\n        for (uint256 i = 0; i <= currentPeriod; i++) {\r\n            bytes32 hashedDonation = keccak256(abi.encodePacked(_address, currentPeriod + i));\r\n            totalDonated = totalDonated.add(hashedDonations[hashedDonation]);\r\n        }\r\n\r\n        return totalDonated;\r\n    }\r\n\r\n    function getDonators() external view returns (address[] memory) {\r\n        return donators;\r\n    }\r\n\r\n    function getDonationInPeriod(address _address, uint256 _periodId) external view returns (uint256) {\r\n        return hashedDonations[keccak256(abi.encodePacked(_address, _periodId))];\r\n    }\r\n\r\n    function getCurrentPeriod() public view returns(uint256) {\r\n        require(startTimestamp <= now, \"The contract is not active yet\");\r\n        return now.sub(startTimestamp).div(periodDuration);\r\n    }\r\n\r\n    function addDonatorToList() private {\r\n        if (!addressToIsDonator[msg.sender]) {\r\n            addressToIsDonator[msg.sender] = true;\r\n            donators.push(msg.sender);\r\n        }\r\n    }\r\n\r\n}",
  "sourcePath": "D:/_GameDev/Solidity/ether-donator/contracts/EtherPatron.sol",
  "compiler": {
    "name": "solc",
    "version": "0.5.2+commit.1df8f40c.Emscripten.clang"
  },
  "schemaVersion": "3.0.5",
  "updatedAt": "2019-05-08T16:50:04.255Z",
  "devdoc": {
    "methods": {
      "isOwner()": {
        "return": "true if `msg.sender` is the owner of the contract."
      },
      "owner()": {
        "return": "the address of the owner."
      },
      "renounceOwnership()": {
        "details": "Allows the current owner to relinquish control of the contract. It will not be possible to call the functions with the `onlyOwner` modifier anymore."
      },
      "transferOwnership(address)": {
        "details": "Allows the current owner to transfer control of the contract to a newOwner.",
        "params": {
          "newOwner": "The address to transfer ownership to."
        }
      }
    }
  },
  "userdoc": {
    "methods": {
      "renounceOwnership()": {
        "notice": "Renouncing ownership will leave the contract without an owner, thereby removing any functionality that is only available to the owner."
      }
    }
  }
}