{
  "contractName": "EtherPatron",
  "abi": [
    {
      "constant": true,
      "inputs": [],
      "name": "periodTarget",
      "outputs": [
        {
          "name": "",
          "type": "uint256"
        }
      ],
      "payable": false,
      "stateMutability": "view",
      "type": "function"
    },
    {
      "constant": true,
      "inputs": [],
      "name": "minDonation",
      "outputs": [
        {
          "name": "",
          "type": "uint256"
        }
      ],
      "payable": false,
      "stateMutability": "view",
      "type": "function"
    },
    {
      "constant": true,
      "inputs": [],
      "name": "purpose",
      "outputs": [
        {
          "name": "",
          "type": "bytes32"
        }
      ],
      "payable": false,
      "stateMutability": "view",
      "type": "function"
    },
    {
      "constant": false,
      "inputs": [],
      "name": "renounceOwnership",
      "outputs": [],
      "payable": false,
      "stateMutability": "nonpayable",
      "type": "function"
    },
    {
      "constant": true,
      "inputs": [],
      "name": "owner",
      "outputs": [
        {
          "name": "",
          "type": "address"
        }
      ],
      "payable": false,
      "stateMutability": "view",
      "type": "function"
    },
    {
      "constant": true,
      "inputs": [],
      "name": "isOwner",
      "outputs": [
        {
          "name": "",
          "type": "bool"
        }
      ],
      "payable": false,
      "stateMutability": "view",
      "type": "function"
    },
    {
      "constant": true,
      "inputs": [],
      "name": "periodDuration",
      "outputs": [
        {
          "name": "",
          "type": "uint256"
        }
      ],
      "payable": false,
      "stateMutability": "view",
      "type": "function"
    },
    {
      "constant": true,
      "inputs": [],
      "name": "lastWithdrawnPeriod",
      "outputs": [
        {
          "name": "",
          "type": "uint256"
        }
      ],
      "payable": false,
      "stateMutability": "view",
      "type": "function"
    },
    {
      "constant": false,
      "inputs": [
        {
          "name": "newOwner",
          "type": "address"
        }
      ],
      "name": "transferOwnership",
      "outputs": [],
      "payable": false,
      "stateMutability": "nonpayable",
      "type": "function"
    },
    {
      "inputs": [
        {
          "name": "_startTimestamp",
          "type": "uint256"
        },
        {
          "name": "_periodDuration",
          "type": "uint256"
        },
        {
          "name": "_periodTarget",
          "type": "uint256"
        },
        {
          "name": "_purpose",
          "type": "bytes32"
        }
      ],
      "payable": false,
      "stateMutability": "nonpayable",
      "type": "constructor"
    },
    {
      "anonymous": false,
      "inputs": [
        {
          "indexed": false,
          "name": "donator",
          "type": "address"
        },
        {
          "indexed": false,
          "name": "donation",
          "type": "uint256"
        },
        {
          "indexed": false,
          "name": "periods",
          "type": "uint8"
        }
      ],
      "name": "DonationEvent",
      "type": "event"
    },
    {
      "anonymous": false,
      "inputs": [
        {
          "indexed": true,
          "name": "previousOwner",
          "type": "address"
        },
        {
          "indexed": true,
          "name": "newOwner",
          "type": "address"
        }
      ],
      "name": "OwnershipTransferred",
      "type": "event"
    },
    {
      "constant": false,
      "inputs": [
        {
          "name": "_periods",
          "type": "uint8"
        }
      ],
      "name": "donate",
      "outputs": [],
      "payable": true,
      "stateMutability": "payable",
      "type": "function"
    },
    {
      "constant": false,
      "inputs": [
        {
          "name": "_periods",
          "type": "uint8"
        }
      ],
      "name": "cancelDonations",
      "outputs": [],
      "payable": false,
      "stateMutability": "nonpayable",
      "type": "function"
    },
    {
      "constant": false,
      "inputs": [
        {
          "name": "_minDonation",
          "type": "uint256"
        }
      ],
      "name": "setMinDonation",
      "outputs": [],
      "payable": false,
      "stateMutability": "nonpayable",
      "type": "function"
    },
    {
      "constant": false,
      "inputs": [
        {
          "name": "_periodTarget",
          "type": "uint256"
        }
      ],
      "name": "setPeriodTarget",
      "outputs": [],
      "payable": false,
      "stateMutability": "nonpayable",
      "type": "function"
    },
    {
      "constant": false,
      "inputs": [
        {
          "name": "_purpose",
          "type": "bytes32"
        }
      ],
      "name": "setPurpose",
      "outputs": [],
      "payable": false,
      "stateMutability": "nonpayable",
      "type": "function"
    },
    {
      "constant": false,
      "inputs": [],
      "name": "withdrawPreviousPeriods",
      "outputs": [],
      "payable": false,
      "stateMutability": "nonpayable",
      "type": "function"
    },
    {
      "constant": false,
      "inputs": [],
      "name": "withdrawCurrentPeriod",
      "outputs": [],
      "payable": false,
      "stateMutability": "nonpayable",
      "type": "function"
    },
    {
      "constant": true,
      "inputs": [
        {
          "name": "_periodId",
          "type": "uint256"
        }
      ],
      "name": "getAllowedWithdrawalInPeriod",
      "outputs": [
        {
          "name": "",
          "type": "uint256"
        }
      ],
      "payable": false,
      "stateMutability": "view",
      "type": "function"
    },
    {
      "constant": true,
      "inputs": [
        {
          "name": "_periodId",
          "type": "uint256"
        }
      ],
      "name": "getTotalPeriodDonations",
      "outputs": [
        {
          "name": "",
          "type": "uint256"
        }
      ],
      "payable": false,
      "stateMutability": "view",
      "type": "function"
    },
    {
      "constant": true,
      "inputs": [],
      "name": "getPeriodTimeLeft",
      "outputs": [
        {
          "name": "",
          "type": "uint256"
        }
      ],
      "payable": false,
      "stateMutability": "view",
      "type": "function"
    },
    {
      "constant": true,
      "inputs": [
        {
          "name": "_address",
          "type": "address"
        }
      ],
      "name": "getAllDonationsOfAddress",
      "outputs": [
        {
          "name": "",
          "type": "uint256"
        }
      ],
      "payable": false,
      "stateMutability": "view",
      "type": "function"
    },
    {
      "constant": true,
      "inputs": [],
      "name": "getDonators",
      "outputs": [
        {
          "name": "",
          "type": "address[]"
        }
      ],
      "payable": false,
      "stateMutability": "view",
      "type": "function"
    },
    {
      "constant": true,
      "inputs": [
        {
          "name": "_address",
          "type": "address"
        },
        {
          "name": "_periodId",
          "type": "uint256"
        }
      ],
      "name": "getAddressDonationInPeriod",
      "outputs": [
        {
          "name": "",
          "type": "uint256"
        }
      ],
      "payable": false,
      "stateMutability": "view",
      "type": "function"
    },
    {
      "constant": true,
      "inputs": [],
      "name": "getCurrentPeriod",
      "outputs": [
        {
          "name": "",
          "type": "uint256"
        }
      ],
      "payable": false,
      "stateMutability": "view",
      "type": "function"
    }
  ],
  "bytecode": "0x608060405266038d7ea4c68000600555600060065534801561002057600080fd5b506040516080806116218339810180604052608081101561004057600080fd5b8101908080519060200190929190805190602001909291908051906020019092919080519060200190929190505050336000806101000a81548173ffffffffffffffffffffffffffffffffffffffff021916908373ffffffffffffffffffffffffffffffffffffffff1602179055506000809054906101000a900473ffffffffffffffffffffffffffffffffffffffff1673ffffffffffffffffffffffffffffffffffffffff16600073ffffffffffffffffffffffffffffffffffffffff167f8be0079c531659141344cd1fd0a4f28419497f9722a3daafe3b4186f6b6457e060405160405180910390a383600181905550826002819055508060048190555081600381905550505050506114c78061015a6000396000f3fe60806040526004361061015d576000357c0100000000000000000000000000000000000000000000000000000000900480638da5cb5b116100d3578063bf1482fa1161008c578063bf1482fa146104e3578063d3855b0c1461054f578063dba8293b1461057a578063e5b0b36b146105e9578063f2fde38b1461061a578063fb0c42681461066b5761015d565b80638da5cb5b146103b55780638f32d59b1461040c57806395af66df1461043b5780639f95ec9914610452578063a9f77e241461047d578063b470aade146104b85761015d565b80634895feff116101255780634895feff146102495780635abd8768146102ae57806366c3601c146102fd57806370740aab14610338578063715018a61461036357806383a6595f1461037a5761015d565b8063030bb07914610162578063086146d21461018d5780630f1380b0146101b85780631c0e0225146102075780632668357b14610232575b600080fd5b34801561016e57600080fd5b506101776106a9565b6040518082815260200191505060405180910390f35b34801561019957600080fd5b506101a26106af565b6040518082815260200191505060405180910390f35b3480156101c457600080fd5b506101f1600480360360208110156101db57600080fd5b8101908080359060200190929190505050610759565b6040518082815260200191505060405180910390f35b34801561021357600080fd5b5061021c610776565b6040518082815260200191505060405180910390f35b34801561023e57600080fd5b5061024761077c565b005b34801561025557600080fd5b506102986004803603602081101561026c57600080fd5b81019080803573ffffffffffffffffffffffffffffffffffffffff169060200190929190505050610817565b6040518082815260200191505060405180910390f35b3480156102ba57600080fd5b506102e7600480360360208110156102d157600080fd5b810190808035906020019092919050505061086e565b6040518082815260200191505060405180910390f35b34801561030957600080fd5b506103366004803603602081101561032057600080fd5b810190808035906020019092919050505061088b565b005b34801561034457600080fd5b5061034d6108a8565b6040518082815260200191505060405180910390f35b34801561036f57600080fd5b506103786108ae565b005b34801561038657600080fd5b506103b36004803603602081101561039d57600080fd5b8101908080359060200190929190505050610980565b005b3480156103c157600080fd5b506103ca61099d565b604051808273ffffffffffffffffffffffffffffffffffffffff1673ffffffffffffffffffffffffffffffffffffffff16815260200191505060405180910390f35b34801561041857600080fd5b506104216109c6565b604051808215151515815260200191505060405180910390f35b34801561044757600080fd5b50610450610a1d565b005b34801561045e57600080fd5b50610467610b05565b6040518082815260200191505060405180910390f35b34801561048957600080fd5b506104b6600480360360208110156104a057600080fd5b8101908080359060200190929190505050610b66565b005b3480156104c457600080fd5b506104cd610b83565b6040518082815260200191505060405180910390f35b3480156104ef57600080fd5b506104f8610b89565b6040518080602001828103825283818151815260200191508051906020019060200280838360005b8381101561053b578082015181840152602081019050610520565b505050509050019250505060405180910390f35b34801561055b57600080fd5b50610564610c17565b6040518082815260200191505060405180910390f35b34801561058657600080fd5b506105d36004803603604081101561059d57600080fd5b81019080803573ffffffffffffffffffffffffffffffffffffffff16906020019092919080359060200190929190505050610c1d565b6040518082815260200191505060405180910390f35b610618600480360360208110156105ff57600080fd5b81019080803560ff169060200190929190505050610ca4565b005b34801561062657600080fd5b506106696004803603602081101561063d57600080fd5b81019080803573ffffffffffffffffffffffffffffffffffffffff169060200190929190505050610f63565b005b34801561067757600080fd5b506106a76004803603602081101561068e57600080fd5b81019080803560ff169060200190929190505050610f82565b005b60035481565b6000426001541115151561072b576040517f08c379a000000000000000000000000000000000000000000000000000000000815260040180806020018281038252601e8152602001807f54686520636f6e7472616374206973206e6f742061637469766520796574000081525060200191505060405180910390fd5b6107546002546107466001544261117090919063ffffffff16565b61119290919063ffffffff16565b905090565b600060096000838152602001908152602001600020549050919050565b60055481565b6107846109c6565b151561078f57600080fd5b60006107996106af565b9050600060086000838152602001908152602001600020549050600060086000848152602001908152602001600020819055503373ffffffffffffffffffffffffffffffffffffffff166108fc829081150290604051600060405180830381858888f19350505050158015610812573d6000803e3d6000fd5b505050565b6000806108226106af565b9050600080905060008090505b8281111515610863576108546108458683610c1d565b836111bc90919063ffffffff16565b9150808060010191505061082f565b508092505050919050565b600060086000838152602001908152602001600020549050919050565b6108936109c6565b151561089e57600080fd5b8060038190555050565b60045481565b6108b66109c6565b15156108c157600080fd5b600073ffffffffffffffffffffffffffffffffffffffff166000809054906101000a900473ffffffffffffffffffffffffffffffffffffffff1673ffffffffffffffffffffffffffffffffffffffff167f8be0079c531659141344cd1fd0a4f28419497f9722a3daafe3b4186f6b6457e060405160405180910390a360008060006101000a81548173ffffffffffffffffffffffffffffffffffffffff021916908373ffffffffffffffffffffffffffffffffffffffff160217905550565b6109886109c6565b151561099357600080fd5b8060058190555050565b60008060009054906101000a900473ffffffffffffffffffffffffffffffffffffffff16905090565b60008060009054906101000a900473ffffffffffffffffffffffffffffffffffffffff1673ffffffffffffffffffffffffffffffffffffffff163373ffffffffffffffffffffffffffffffffffffffff1614905090565b610a256109c6565b1515610a3057600080fd5b6000610a3a6106af565b90506000809050600060065490505b82811015610a9f57610a776008600083815260200190815260200160002054836111bc90919063ffffffff16565b9150600060086000838152602001908152602001600020819055508080600101915050610a49565b50610ab460018361117090919063ffffffff16565b6006819055503373ffffffffffffffffffffffffffffffffffffffff166108fc829081150290604051600060405180830381858888f19350505050158015610b00573d6000803e3d6000fd5b505050565b600080610b4b610b3a600254610b2c6001610b1e6106af565b6111bc90919063ffffffff16565b6111dd90919063ffffffff16565b6001546111bc90919063ffffffff16565b9050610b60428261117090919063ffffffff16565b91505090565b610b6e6109c6565b1515610b7957600080fd5b8060048190555050565b60025481565b60606007805480602002602001604051908101604052809291908181526020018280548015610c0d57602002820191906000526020600020905b8160009054906101000a900473ffffffffffffffffffffffffffffffffffffffff1673ffffffffffffffffffffffffffffffffffffffff1681526020019060010190808311610bc3575b5050505050905090565b60065481565b6000600a60008484604051602001808373ffffffffffffffffffffffffffffffffffffffff1673ffffffffffffffffffffffffffffffffffffffff166c010000000000000000000000000281526014018281526020019250505060405160208183030381529060405280519060200120815260200190815260200160002054905092915050565b348160ff166005540211151515610d06576040517f08c379a000000000000000000000000000000000000000000000000000000000815260040180806020018281038252602381526020018061142a6023913960400191505060405180910390fd5b8060ff166000101515610d64576040517f08c379a000000000000000000000000000000000000000000000000000000000815260040180806020018281038252602281526020018061144d6022913960400191505060405180910390fd5b6000610d6e6106af565b90506000610d888360ff163461119290919063ffffffff16565b905060008090505b8360ff168160ff161015610edc5760008160ff1684019050610dce8360086000848152602001908152602001600020546111bc90919063ffffffff16565b6008600083815260200190815260200160002081905550610e0b8360096000848152602001908152602001600020546111bc90919063ffffffff16565b600960008381526020019081526020016000208190555060003382604051602001808373ffffffffffffffffffffffffffffffffffffffff1673ffffffffffffffffffffffffffffffffffffffff166c0100000000000000000000000002815260140182815260200192505050604051602081830303815290604052805190602001209050610eb684600a6000848152602001908152602001600020546111bc90919063ffffffff16565b600a60008381526020019081526020016000208190555050508080600101915050610d90565b50610ee561121b565b7fdacc5271ee05209d7efe7248bea98cdf8ada6d9c7f510d82a1f159121cfd7411333485604051808473ffffffffffffffffffffffffffffffffffffffff1673ffffffffffffffffffffffffffffffffffffffff1681526020018381526020018260ff1660ff168152602001935050505060405180910390a1505050565b610f6b6109c6565b1515610f7657600080fd5b610f7f8161132f565b50565b8060ff166000101515610fe0576040517f08c379a000000000000000000000000000000000000000000000000000000000815260040180806020018281038252602d81526020018061146f602d913960400191505060405180910390fd5b6000610fea6106af565b905060008090506000600190505b8360ff168160ff16111515611123576000338260ff168501604051602001808373ffffffffffffffffffffffffffffffffffffffff1673ffffffffffffffffffffffffffffffffffffffff166c01000000000000000000000000028152601401828152602001925050506040516020818303038152906040528051906020012090506110b8600a600083815260200190815260200160002054600960008560ff16880181526020019081526020016000205461117090919063ffffffff16565b600960008460ff1687018152602001908152602001600020819055506110fa600a600083815260200190815260200160002054846111bc90919063ffffffff16565b92506000600a600083815260200190815260200160002081905550508080600101915050610ff8565b503373ffffffffffffffffffffffffffffffffffffffff166108fc829081150290604051600060405180830381858888f1935050505015801561116a573d6000803e3d6000fd5b50505050565b600082821115151561118157600080fd5b600082840390508091505092915050565b600080821115156111a257600080fd5b600082848115156111af57fe5b0490508091505092915050565b60008082840190508381101515156111d357600080fd5b8091505092915050565b6000808314156111f05760009050611215565b6000828402905082848281151561120357fe5b0414151561121057600080fd5b809150505b92915050565b600b60003373ffffffffffffffffffffffffffffffffffffffff1673ffffffffffffffffffffffffffffffffffffffff16815260200190815260200160002060009054906101000a900460ff16151561132d576001600b60003373ffffffffffffffffffffffffffffffffffffffff1673ffffffffffffffffffffffffffffffffffffffff16815260200190815260200160002060006101000a81548160ff02191690831515021790555060073390806001815401808255809150509060018203906000526020600020016000909192909190916101000a81548173ffffffffffffffffffffffffffffffffffffffff021916908373ffffffffffffffffffffffffffffffffffffffff160217905550505b565b600073ffffffffffffffffffffffffffffffffffffffff168173ffffffffffffffffffffffffffffffffffffffff161415151561136b57600080fd5b8073ffffffffffffffffffffffffffffffffffffffff166000809054906101000a900473ffffffffffffffffffffffffffffffffffffffff1673ffffffffffffffffffffffffffffffffffffffff167f8be0079c531659141344cd1fd0a4f28419497f9722a3daafe3b4186f6b6457e060405160405180910390a3806000806101000a81548173ffffffffffffffffffffffffffffffffffffffff021916908373ffffffffffffffffffffffffffffffffffffffff1602179055505056fe446f6e6174696f6e206973206c657373207468616e206d696e696d756d2076616c75654d75737420646f6e61746520746f206174206c65617374206f6e6520706572696f644d75737420726566756e6420646f6e6174696f6e2066726f6d206174206c65617374206f6e6520706572696f64a165627a7a723058202cbf80b404362c113265a9a12200caa685d08533d3610db8024a2e26c530d4640029",
  "source": "pragma solidity ^0.5.2;\r\n\r\nimport \"../node_modules/openzeppelin-solidity/contracts/ownership/Ownable.sol\";\r\nimport \"../node_modules/openzeppelin-solidity/contracts/math/SafeMath.sol\";\r\n\r\n\r\ncontract EtherPatron is Ownable {\r\n    uint256 private startTimestamp;\r\n    uint256 public periodDuration;\r\n    uint256 public periodTarget; \r\n    bytes32 public purpose;\r\n    \r\n    uint256 public minDonation = 0.001 ether;    \r\n\r\n    uint256 public lastWithdrawnPeriod = 0;   \r\n    \r\n    address[] private donators;    \r\n\r\n    mapping(uint256 => uint256) private periodToAllowedWithdrawal; \r\n    mapping(uint256 => uint256) private periodToDonations;\r\n\r\n    mapping(bytes32 => uint256) private hashedDonations;\r\n\r\n    mapping(address => bool) private addressToIsDonator;\r\n    \r\n    \r\n\r\n    event DonationEvent (\r\n        address donator,\r\n        uint256 donation,\r\n        uint8 periods\r\n    );\r\n\r\n    using SafeMath for uint256;\r\n    \r\n    constructor(uint256 _startTimestamp, uint256 _periodDuration, uint256 _periodTarget, bytes32 _purpose) public {\r\n        startTimestamp = _startTimestamp;\r\n        periodDuration = _periodDuration;\r\n        purpose = _purpose;\r\n        periodTarget = _periodTarget;\r\n    }\r\n\r\n    function donate(uint8 _periods) external payable {\r\n        require(minDonation * _periods <= msg.value, \"Donation is less than minimum value\");\r\n        require(0 < _periods, \"Must donate to at least one period\");\r\n\r\n        uint256 currentPeriod = getCurrentPeriod();        \r\n        uint256 donationPerPeriod = msg.value.div(_periods);\r\n\r\n        for (uint8 i = 0; i < _periods; i++) {            \r\n            uint256 targetPeriod = currentPeriod + i;\r\n            periodToAllowedWithdrawal[targetPeriod] = periodToAllowedWithdrawal[targetPeriod].add(donationPerPeriod);\r\n\r\n            periodToDonations[targetPeriod] = periodToDonations[targetPeriod].add(donationPerPeriod);\r\n\r\n            bytes32 hashedDonation = keccak256(abi.encodePacked(msg.sender, targetPeriod));\r\n            hashedDonations[hashedDonation] = hashedDonations[hashedDonation].add(donationPerPeriod);\r\n        }\r\n\r\n        addDonatorToList();\r\n\r\n        emit DonationEvent(msg.sender, msg.value, _periods);\r\n    }\r\n\r\n    function cancelDonations(uint8 _periods) external {\r\n        require(0 < _periods, \"Must refund donation from at least one period\");\r\n\r\n        uint256 currentPeriod = getCurrentPeriod();\r\n        uint256 sumToRefund = 0;\r\n\r\n        // Starts at 1 >> can't refund current period\r\n        for (uint8 i = 1; i <= _periods; i++) {\r\n            bytes32 hashedDonation = keccak256(abi.encodePacked(msg.sender, currentPeriod + i));\r\n\r\n            periodToDonations[currentPeriod + i] = periodToDonations[currentPeriod + i].sub(hashedDonations[hashedDonation]);\r\n\r\n            sumToRefund = sumToRefund.add(hashedDonations[hashedDonation]);\r\n            hashedDonations[hashedDonation] = 0;            \r\n        }\r\n\r\n        msg.sender.transfer(sumToRefund);\r\n    }\r\n\r\n    function setMinDonation(uint256 _minDonation) external onlyOwner {\r\n        minDonation = _minDonation;\r\n    }\r\n\r\n    function setPeriodTarget(uint256 _periodTarget) external onlyOwner {\r\n        periodTarget = _periodTarget;\r\n    }\r\n\r\n    function setPurpose(bytes32 _purpose) external onlyOwner {\r\n        purpose = _purpose;\r\n    }\r\n\r\n    function withdrawPreviousPeriods() external onlyOwner {\r\n        uint256 currentPeriod = getCurrentPeriod();\r\n        uint256 sumToWithdraw = 0;\r\n\r\n        for (uint256 i = lastWithdrawnPeriod; i < currentPeriod; i++) {\r\n            sumToWithdraw = sumToWithdraw.add(periodToAllowedWithdrawal[i]);\r\n            periodToAllowedWithdrawal[i] = 0;\r\n        }       \r\n\r\n        lastWithdrawnPeriod = currentPeriod.sub(1); \r\n        msg.sender.transfer(sumToWithdraw);\r\n    }\r\n\r\n    function withdrawCurrentPeriod() external onlyOwner {\r\n        uint256 currentPeriod = getCurrentPeriod();\r\n        uint256 sumToWithdraw = periodToAllowedWithdrawal[currentPeriod];\r\n        periodToAllowedWithdrawal[currentPeriod] = 0;\r\n        msg.sender.transfer(sumToWithdraw);\r\n    }\r\n\r\n    function getAllowedWithdrawalInPeriod(uint256 _periodId) external view returns (uint256) {\r\n        return periodToAllowedWithdrawal[_periodId];\r\n    }\r\n\r\n    function getTotalPeriodDonations(uint256 _periodId) external view returns (uint256) {\r\n        return periodToDonations[_periodId];\r\n    }\r\n\r\n    function getPeriodTimeLeft() external view returns (uint256) {\r\n        uint256 endOfThisPeriod = startTimestamp.add(getCurrentPeriod().add(1).mul(periodDuration));\r\n        return endOfThisPeriod.sub(now);       \r\n    }\r\n\r\n    function getAllDonationsOfAddress(address _address) external view returns (uint256) {\r\n        uint256 currentPeriod = getCurrentPeriod();\r\n        uint256 totalDonated = 0;\r\n        for (uint256 i = 0; i <= currentPeriod; i++) {\r\n            totalDonated = totalDonated.add(getAddressDonationInPeriod(_address, i));\r\n        }\r\n\r\n        return totalDonated;\r\n    }   \r\n\r\n    function getDonators() external view returns (address[] memory) {\r\n        return donators;\r\n    }\r\n\r\n    function getAddressDonationInPeriod(address _address, uint256 _periodId) public view returns (uint256) {\r\n        return hashedDonations[keccak256(abi.encodePacked(_address, _periodId))];\r\n    }\r\n\r\n    function getCurrentPeriod() public view returns(uint256) {\r\n        require(startTimestamp <= now, \"The contract is not active yet\");\r\n        return now.sub(startTimestamp).div(periodDuration);\r\n    }\r\n\r\n    function addDonatorToList() private {\r\n        if (!addressToIsDonator[msg.sender]) {\r\n            addressToIsDonator[msg.sender] = true;\r\n            donators.push(msg.sender);\r\n        }\r\n    }\r\n\r\n}",
  "sourcePath": "D:/_GameDev/Solidity/ether-patron/contracts/EtherPatron.sol",
  "compiler": {
    "name": "solc",
    "version": "0.5.2+commit.1df8f40c.Emscripten.clang"
  },
  "schemaVersion": "3.0.5",
  "updatedAt": "2019-05-20T15:45:49.620Z",
  "devdoc": {
    "methods": {
      "isOwner()": {
        "return": "true if `msg.sender` is the owner of the contract."
      },
      "owner()": {
        "return": "the address of the owner."
      },
      "renounceOwnership()": {
        "details": "Allows the current owner to relinquish control of the contract. It will not be possible to call the functions with the `onlyOwner` modifier anymore."
      },
      "transferOwnership(address)": {
        "details": "Allows the current owner to transfer control of the contract to a newOwner.",
        "params": {
          "newOwner": "The address to transfer ownership to."
        }
      }
    }
  },
  "userdoc": {
    "methods": {
      "renounceOwnership()": {
        "notice": "Renouncing ownership will leave the contract without an owner, thereby removing any functionality that is only available to the owner."
      }
    }
  }
}