{
  "contractName": "EtherDonator",
  "abi": [
    {
      "constant": false,
      "inputs": [],
      "name": "renounceOwnership",
      "outputs": [],
      "payable": false,
      "stateMutability": "nonpayable",
      "type": "function"
    },
    {
      "constant": true,
      "inputs": [],
      "name": "owner",
      "outputs": [
        {
          "name": "",
          "type": "address"
        }
      ],
      "payable": false,
      "stateMutability": "view",
      "type": "function"
    },
    {
      "constant": true,
      "inputs": [],
      "name": "isOwner",
      "outputs": [
        {
          "name": "",
          "type": "bool"
        }
      ],
      "payable": false,
      "stateMutability": "view",
      "type": "function"
    },
    {
      "constant": false,
      "inputs": [
        {
          "name": "newOwner",
          "type": "address"
        }
      ],
      "name": "transferOwnership",
      "outputs": [],
      "payable": false,
      "stateMutability": "nonpayable",
      "type": "function"
    },
    {
      "inputs": [
        {
          "name": "_startTimestamp",
          "type": "uint256"
        },
        {
          "name": "_periodDuration",
          "type": "uint256"
        }
      ],
      "payable": false,
      "stateMutability": "nonpayable",
      "type": "constructor"
    },
    {
      "anonymous": false,
      "inputs": [
        {
          "indexed": true,
          "name": "previousOwner",
          "type": "address"
        },
        {
          "indexed": true,
          "name": "newOwner",
          "type": "address"
        }
      ],
      "name": "OwnershipTransferred",
      "type": "event"
    },
    {
      "constant": false,
      "inputs": [
        {
          "name": "_periods",
          "type": "uint8"
        }
      ],
      "name": "donate",
      "outputs": [],
      "payable": true,
      "stateMutability": "payable",
      "type": "function"
    },
    {
      "constant": false,
      "inputs": [
        {
          "name": "_periods",
          "type": "uint8"
        }
      ],
      "name": "cancelDonations",
      "outputs": [],
      "payable": false,
      "stateMutability": "nonpayable",
      "type": "function"
    },
    {
      "constant": false,
      "inputs": [
        {
          "name": "_minDonation",
          "type": "uint256"
        }
      ],
      "name": "setMinDonation",
      "outputs": [],
      "payable": false,
      "stateMutability": "nonpayable",
      "type": "function"
    },
    {
      "constant": false,
      "inputs": [],
      "name": "withdrawPreviousPeriods",
      "outputs": [],
      "payable": false,
      "stateMutability": "nonpayable",
      "type": "function"
    },
    {
      "constant": false,
      "inputs": [],
      "name": "withdrawCurrentPeriod",
      "outputs": [],
      "payable": false,
      "stateMutability": "nonpayable",
      "type": "function"
    },
    {
      "constant": true,
      "inputs": [],
      "name": "getMinDonation",
      "outputs": [
        {
          "name": "",
          "type": "uint256"
        }
      ],
      "payable": false,
      "stateMutability": "view",
      "type": "function"
    },
    {
      "constant": true,
      "inputs": [
        {
          "name": "_address",
          "type": "address"
        }
      ],
      "name": "getDonationsOfAddress",
      "outputs": [
        {
          "name": "",
          "type": "uint256"
        }
      ],
      "payable": false,
      "stateMutability": "view",
      "type": "function"
    },
    {
      "constant": true,
      "inputs": [],
      "name": "getDonators",
      "outputs": [
        {
          "name": "",
          "type": "address[]"
        }
      ],
      "payable": false,
      "stateMutability": "view",
      "type": "function"
    },
    {
      "constant": true,
      "inputs": [
        {
          "name": "_address",
          "type": "address"
        },
        {
          "name": "_periodId",
          "type": "uint256"
        }
      ],
      "name": "getDonationInPeriod",
      "outputs": [
        {
          "name": "",
          "type": "uint256"
        }
      ],
      "payable": false,
      "stateMutability": "view",
      "type": "function"
    },
    {
      "constant": true,
      "inputs": [],
      "name": "getCurrentPeriod",
      "outputs": [
        {
          "name": "",
          "type": "uint256"
        }
      ],
      "payable": false,
      "stateMutability": "view",
      "type": "function"
    }
  ],
  "bytecode": "0x608060405266038d7ea4c68000600355600060045534801561002057600080fd5b506040516040806111f38339810180604052604081101561004057600080fd5b810190808051906020019092919080519060200190929190505050336000806101000a81548173ffffffffffffffffffffffffffffffffffffffff021916908373ffffffffffffffffffffffffffffffffffffffff1602179055506000809054906101000a900473ffffffffffffffffffffffffffffffffffffffff1673ffffffffffffffffffffffffffffffffffffffff16600073ffffffffffffffffffffffffffffffffffffffff167f8be0079c531659141344cd1fd0a4f28419497f9722a3daafe3b4186f6b6457e060405160405180910390a3816001819055508060028190555050506110bd806101366000396000f3fe6080604052600436106100fa576000357c01000000000000000000000000000000000000000000000000000000009004806395af66df1161009c578063d065bd7211610076578063d065bd7214610370578063e5b0b36b1461039b578063f2fde38b146103cc578063fb0c42681461041d576100fa565b806395af66df14610288578063a589085d1461029f578063bf1482fa14610304576100fa565b8063715018a6116100d8578063715018a6146101b057806383a6595f146101c75780638da5cb5b146102025780638f32d59b14610259576100fa565b8063086146d2146100ff5780632668357b1461012a57806362a7676e14610141575b600080fd5b34801561010b57600080fd5b5061011461045b565b6040518082815260200191505060405180910390f35b34801561013657600080fd5b5061013f610505565b005b34801561014d57600080fd5b5061019a6004803603604081101561016457600080fd5b81019080803573ffffffffffffffffffffffffffffffffffffffff169060200190929190803590602001909291905050506105a0565b6040518082815260200191505060405180910390f35b3480156101bc57600080fd5b506101c5610627565b005b3480156101d357600080fd5b50610200600480360360208110156101ea57600080fd5b81019080803590602001909291905050506106f9565b005b34801561020e57600080fd5b50610217610716565b604051808273ffffffffffffffffffffffffffffffffffffffff1673ffffffffffffffffffffffffffffffffffffffff16815260200191505060405180910390f35b34801561026557600080fd5b5061026e61073f565b604051808215151515815260200191505060405180910390f35b34801561029457600080fd5b5061029d610796565b005b3480156102ab57600080fd5b506102ee600480360360208110156102c257600080fd5b81019080803573ffffffffffffffffffffffffffffffffffffffff16906020019092919050505061087e565b6040518082815260200191505060405180910390f35b34801561031057600080fd5b50610319610950565b6040518080602001828103825283818151815260200191508051906020019060200280838360005b8381101561035c578082015181840152602081019050610341565b505050509050019250505060405180910390f35b34801561037c57600080fd5b506103856109de565b6040518082815260200191505060405180910390f35b6103ca600480360360208110156103b157600080fd5b81019080803560ff1690602001909291905050506109e8565b005b3480156103d857600080fd5b5061041b600480360360208110156103ef57600080fd5b81019080803573ffffffffffffffffffffffffffffffffffffffff169060200190929190505050610bf1565b005b34801561042957600080fd5b506104596004803603602081101561044057600080fd5b81019080803560ff169060200190929190505050610c10565b005b600042600154111515156104d7576040517f08c379a000000000000000000000000000000000000000000000000000000000815260040180806020018281038252601e8152602001807f54686520636f6e7472616374206973206e6f742061637469766520796574000081525060200191505060405180910390fd5b6105006002546104f260015442610da490919063ffffffff16565b610dc690919063ffffffff16565b905090565b61050d61073f565b151561051857600080fd5b600061052261045b565b9050600060056000838152602001908152602001600020549050600060056000848152602001908152602001600020819055503373ffffffffffffffffffffffffffffffffffffffff166108fc829081150290604051600060405180830381858888f1935050505015801561059b573d6000803e3d6000fd5b505050565b6000600660008484604051602001808373ffffffffffffffffffffffffffffffffffffffff1673ffffffffffffffffffffffffffffffffffffffff166c010000000000000000000000000281526014018281526020019250505060405160208183030381529060405280519060200120815260200190815260200160002054905092915050565b61062f61073f565b151561063a57600080fd5b600073ffffffffffffffffffffffffffffffffffffffff166000809054906101000a900473ffffffffffffffffffffffffffffffffffffffff1673ffffffffffffffffffffffffffffffffffffffff167f8be0079c531659141344cd1fd0a4f28419497f9722a3daafe3b4186f6b6457e060405160405180910390a360008060006101000a81548173ffffffffffffffffffffffffffffffffffffffff021916908373ffffffffffffffffffffffffffffffffffffffff160217905550565b61070161073f565b151561070c57600080fd5b8060038190555050565b60008060009054906101000a900473ffffffffffffffffffffffffffffffffffffffff16905090565b60008060009054906101000a900473ffffffffffffffffffffffffffffffffffffffff1673ffffffffffffffffffffffffffffffffffffffff163373ffffffffffffffffffffffffffffffffffffffff1614905090565b61079e61073f565b15156107a957600080fd5b60006107b361045b565b90506000809050600060045490505b82811015610818576107f0600560008381526020019081526020016000205483610df090919063ffffffff16565b91506000600560008381526020019081526020016000208190555080806001019150506107c2565b5061082d600183610da490919063ffffffff16565b6004819055503373ffffffffffffffffffffffffffffffffffffffff166108fc829081150290604051600060405180830381858888f19350505050158015610879573d6000803e3d6000fd5b505050565b60008061088961045b565b9050600080905060008090505b828111151561094557600085828501604051602001808373ffffffffffffffffffffffffffffffffffffffff1673ffffffffffffffffffffffffffffffffffffffff166c0100000000000000000000000002815260140182815260200192505050604051602081830303815290604052805190602001209050610935600660008381526020019081526020016000205484610df090919063ffffffff16565b9250508080600101915050610896565b508092505050919050565b606060078054806020026020016040519081016040528092919081815260200182805480156109d457602002820191906000526020600020905b8160009054906101000a900473ffffffffffffffffffffffffffffffffffffffff1673ffffffffffffffffffffffffffffffffffffffff168152602001906001019080831161098a575b5050505050905090565b6000600354905090565b348160ff166003540211151515610a4a576040517f08c379a00000000000000000000000000000000000000000000000000000000081526004018080602001828103825260238152602001806110206023913960400191505060405180910390fd5b8060ff166000101515610aa8576040517f08c379a00000000000000000000000000000000000000000000000000000000081526004018080602001828103825260228152602001806110436022913960400191505060405180910390fd5b6000610ab261045b565b90506000610acc8360ff1634610dc690919063ffffffff16565b905060008090505b8360ff168160ff161015610be35760008160ff1684019050610b12836005600084815260200190815260200160002054610df090919063ffffffff16565b600560008381526020019081526020016000208190555060003382604051602001808373ffffffffffffffffffffffffffffffffffffffff1673ffffffffffffffffffffffffffffffffffffffff166c0100000000000000000000000002815260140182815260200192505050604051602081830303815290604052805190602001209050610bbd846006600084815260200190815260200160002054610df090919063ffffffff16565b600660008381526020019081526020016000208190555050508080600101915050610ad4565b50610bec610e11565b505050565b610bf961073f565b1515610c0457600080fd5b610c0d81610f25565b50565b8060ff166000101515610c6e576040517f08c379a000000000000000000000000000000000000000000000000000000000815260040180806020018281038252602d815260200180611065602d913960400191505060405180910390fd5b6000610c7861045b565b905060008090506000600190505b8360ff168160ff16111515610d57576000338260ff168501604051602001808373ffffffffffffffffffffffffffffffffffffffff1673ffffffffffffffffffffffffffffffffffffffff166c0100000000000000000000000002815260140182815260200192505050604051602081830303815290604052805190602001209050610d2e600660008381526020019081526020016000205484610df090919063ffffffff16565b925060006006600083815260200190815260200160002081905550508080600101915050610c86565b503373ffffffffffffffffffffffffffffffffffffffff166108fc829081150290604051600060405180830381858888f19350505050158015610d9e573d6000803e3d6000fd5b50505050565b6000828211151515610db557600080fd5b600082840390508091505092915050565b60008082111515610dd657600080fd5b60008284811515610de357fe5b0490508091505092915050565b6000808284019050838110151515610e0757600080fd5b8091505092915050565b600860003373ffffffffffffffffffffffffffffffffffffffff1673ffffffffffffffffffffffffffffffffffffffff16815260200190815260200160002060009054906101000a900460ff161515610f23576001600860003373ffffffffffffffffffffffffffffffffffffffff1673ffffffffffffffffffffffffffffffffffffffff16815260200190815260200160002060006101000a81548160ff02191690831515021790555060073390806001815401808255809150509060018203906000526020600020016000909192909190916101000a81548173ffffffffffffffffffffffffffffffffffffffff021916908373ffffffffffffffffffffffffffffffffffffffff160217905550505b565b600073ffffffffffffffffffffffffffffffffffffffff168173ffffffffffffffffffffffffffffffffffffffff1614151515610f6157600080fd5b8073ffffffffffffffffffffffffffffffffffffffff166000809054906101000a900473ffffffffffffffffffffffffffffffffffffffff1673ffffffffffffffffffffffffffffffffffffffff167f8be0079c531659141344cd1fd0a4f28419497f9722a3daafe3b4186f6b6457e060405160405180910390a3806000806101000a81548173ffffffffffffffffffffffffffffffffffffffff021916908373ffffffffffffffffffffffffffffffffffffffff1602179055505056fe446f6e6174696f6e206973206c657373207468616e206d696e696d756d2076616c75654d75737420646f6e61746520746f206174206c65617374206f6e6520706572696f644d75737420726566756e6420646f6e6174696f6e2066726f6d206174206c65617374206f6e6520706572696f64a165627a7a723058201a6060a2c45e280e413c2db4c878cc6dcbed05959a655161e7a90e477adab7b10029",
  "source": "pragma solidity ^0.5.2;\r\n\r\nimport \"../node_modules/openzeppelin-solidity/contracts/ownership/Ownable.sol\";\r\nimport \"../node_modules/openzeppelin-solidity/contracts/math/SafeMath.sol\";\r\n\r\n\r\ncontract EtherDonator is Ownable {\r\n    uint256 private startTimestamp;\r\n    uint256 private periodDuration;\r\n\r\n    uint256 private minDonation = 0.001 ether;    \r\n\r\n    uint256 private lastWithdrawnPeriod = 0;\r\n\r\n    using SafeMath for uint256;\r\n\r\n    mapping(uint256 => uint256) private periodToAllowedWithdrawal; \r\n\r\n    mapping(bytes32 => uint256) private hashedDonations;\r\n\r\n    address[] private donators;\r\n    mapping(address => bool) private addressToIsDonator;\r\n    \r\n    constructor(uint256 _startTimestamp, uint256 _periodDuration) public {\r\n        startTimestamp = _startTimestamp;\r\n        periodDuration = _periodDuration;\r\n    }\r\n\r\n    function donate(uint8 _periods) external payable {\r\n        require(minDonation * _periods <= msg.value, \"Donation is less than minimum value\");\r\n        require(0 < _periods, \"Must donate to at least one period\");\r\n\r\n        uint256 currentPeriod = getCurrentPeriod();        \r\n        uint256 donationPerPeriod = msg.value.div(_periods);\r\n\r\n        for (uint8 i = 0; i < _periods; i++) {            \r\n            uint256 targetPeriod = currentPeriod + i;\r\n            periodToAllowedWithdrawal[targetPeriod] = periodToAllowedWithdrawal[targetPeriod].add(donationPerPeriod);\r\n\r\n            bytes32 hashedDonation = keccak256(abi.encodePacked(msg.sender, targetPeriod));\r\n            hashedDonations[hashedDonation] = hashedDonations[hashedDonation].add(donationPerPeriod);\r\n        }\r\n\r\n        addDonatorToList();\r\n    }\r\n\r\n    function cancelDonations(uint8 _periods) external {\r\n        require(0 < _periods, \"Must refund donation from at least one period\");\r\n\r\n        uint256 currentPeriod = getCurrentPeriod();\r\n        uint256 sumToRefund = 0;\r\n\r\n        // Starts at 1 >> can't refund current period\r\n        for (uint8 i = 1; i <= _periods; i++) {\r\n            bytes32 hashedDonation = keccak256(abi.encodePacked(msg.sender, currentPeriod + i));\r\n            sumToRefund = sumToRefund.add(hashedDonations[hashedDonation]);\r\n            hashedDonations[hashedDonation] = 0;\r\n        }\r\n\r\n        msg.sender.transfer(sumToRefund);\r\n    }\r\n\r\n    function setMinDonation(uint256 _minDonation) external onlyOwner {\r\n        minDonation = _minDonation;\r\n    }\r\n\r\n    function withdrawPreviousPeriods() external onlyOwner {\r\n        uint256 currentPeriod = getCurrentPeriod();\r\n        uint256 sumToWithdraw = 0;\r\n\r\n        for (uint256 i = lastWithdrawnPeriod; i < currentPeriod; i++) {\r\n            sumToWithdraw = sumToWithdraw.add(periodToAllowedWithdrawal[i]);\r\n            periodToAllowedWithdrawal[i] = 0;\r\n        }       \r\n\r\n        lastWithdrawnPeriod = currentPeriod.sub(1); \r\n        msg.sender.transfer(sumToWithdraw);\r\n    }\r\n\r\n    function withdrawCurrentPeriod() external onlyOwner {\r\n        uint256 currentPeriod = getCurrentPeriod();\r\n        uint256 sumToWithdraw = periodToAllowedWithdrawal[currentPeriod];\r\n        periodToAllowedWithdrawal[currentPeriod] = 0;\r\n        msg.sender.transfer(sumToWithdraw);\r\n    }\r\n\r\n    function getMinDonation() external view returns (uint256) {\r\n        return minDonation;\r\n    }\r\n\r\n    function getDonationsOfAddress(address _address) external view returns (uint256) {\r\n        uint256 currentPeriod = getCurrentPeriod();\r\n        uint256 totalDonated = 0;\r\n        for (uint256 i = 0; i <= currentPeriod; i++) {\r\n            bytes32 hashedDonation = keccak256(abi.encodePacked(_address, currentPeriod + i));\r\n            totalDonated = totalDonated.add(hashedDonations[hashedDonation]);\r\n        }\r\n\r\n        return totalDonated;\r\n    }\r\n\r\n    function getDonators() external view returns (address[] memory) {\r\n        return donators;\r\n    }\r\n\r\n    function getDonationInPeriod(address _address, uint256 _periodId) external view returns (uint256) {\r\n        return hashedDonations[keccak256(abi.encodePacked(_address, _periodId))];\r\n    }\r\n\r\n    function getCurrentPeriod() public view returns(uint256) {\r\n        require(startTimestamp <= now, \"The contract is not active yet\");\r\n        return now.sub(startTimestamp).div(periodDuration);\r\n    }\r\n\r\n    function addDonatorToList() private {\r\n        if (!addressToIsDonator[msg.sender]) {\r\n            addressToIsDonator[msg.sender] = true;\r\n            donators.push(msg.sender);\r\n        }\r\n    }\r\n\r\n}",
  "sourcePath": "D:/_GameDev/Solidity/ether-donator/contracts/EtherDonator.sol",
  "compiler": {
    "name": "solc",
    "version": "0.5.2+commit.1df8f40c.Emscripten.clang"
  },
  "schemaVersion": "3.0.5",
  "updatedAt": "2019-04-25T17:52:27.181Z",
  "devdoc": {
    "methods": {
      "isOwner()": {
        "return": "true if `msg.sender` is the owner of the contract."
      },
      "owner()": {
        "return": "the address of the owner."
      },
      "renounceOwnership()": {
        "details": "Allows the current owner to relinquish control of the contract. It will not be possible to call the functions with the `onlyOwner` modifier anymore."
      },
      "transferOwnership(address)": {
        "details": "Allows the current owner to transfer control of the contract to a newOwner.",
        "params": {
          "newOwner": "The address to transfer ownership to."
        }
      }
    }
  },
  "userdoc": {
    "methods": {
      "renounceOwnership()": {
        "notice": "Renouncing ownership will leave the contract without an owner, thereby removing any functionality that is only available to the owner."
      }
    }
  }
}