{
  "contractName": "EtherPatron",
  "abi": [
    {
      "constant": true,
      "inputs": [],
      "name": "periodTarget",
      "outputs": [
        {
          "name": "",
          "type": "uint256"
        }
      ],
      "payable": false,
      "stateMutability": "view",
      "type": "function"
    },
    {
      "constant": true,
      "inputs": [],
      "name": "minDonation",
      "outputs": [
        {
          "name": "",
          "type": "uint256"
        }
      ],
      "payable": false,
      "stateMutability": "view",
      "type": "function"
    },
    {
      "constant": true,
      "inputs": [],
      "name": "purpose",
      "outputs": [
        {
          "name": "",
          "type": "bytes32"
        }
      ],
      "payable": false,
      "stateMutability": "view",
      "type": "function"
    },
    {
      "constant": false,
      "inputs": [],
      "name": "renounceOwnership",
      "outputs": [],
      "payable": false,
      "stateMutability": "nonpayable",
      "type": "function"
    },
    {
      "constant": true,
      "inputs": [],
      "name": "owner",
      "outputs": [
        {
          "name": "",
          "type": "address"
        }
      ],
      "payable": false,
      "stateMutability": "view",
      "type": "function"
    },
    {
      "constant": true,
      "inputs": [],
      "name": "isOwner",
      "outputs": [
        {
          "name": "",
          "type": "bool"
        }
      ],
      "payable": false,
      "stateMutability": "view",
      "type": "function"
    },
    {
      "constant": true,
      "inputs": [],
      "name": "periodDuration",
      "outputs": [
        {
          "name": "",
          "type": "uint256"
        }
      ],
      "payable": false,
      "stateMutability": "view",
      "type": "function"
    },
    {
      "constant": true,
      "inputs": [],
      "name": "lastWithdrawnPeriod",
      "outputs": [
        {
          "name": "",
          "type": "uint256"
        }
      ],
      "payable": false,
      "stateMutability": "view",
      "type": "function"
    },
    {
      "constant": false,
      "inputs": [
        {
          "name": "newOwner",
          "type": "address"
        }
      ],
      "name": "transferOwnership",
      "outputs": [],
      "payable": false,
      "stateMutability": "nonpayable",
      "type": "function"
    },
    {
      "inputs": [
        {
          "name": "_startTimestamp",
          "type": "uint256"
        },
        {
          "name": "_periodDuration",
          "type": "uint256"
        },
        {
          "name": "_periodTarget",
          "type": "uint256"
        },
        {
          "name": "_purpose",
          "type": "bytes32"
        }
      ],
      "payable": false,
      "stateMutability": "nonpayable",
      "type": "constructor"
    },
    {
      "anonymous": false,
      "inputs": [
        {
          "indexed": true,
          "name": "previousOwner",
          "type": "address"
        },
        {
          "indexed": true,
          "name": "newOwner",
          "type": "address"
        }
      ],
      "name": "OwnershipTransferred",
      "type": "event"
    },
    {
      "constant": false,
      "inputs": [
        {
          "name": "_periods",
          "type": "uint8"
        }
      ],
      "name": "donate",
      "outputs": [],
      "payable": true,
      "stateMutability": "payable",
      "type": "function"
    },
    {
      "constant": false,
      "inputs": [
        {
          "name": "_periods",
          "type": "uint8"
        }
      ],
      "name": "cancelDonations",
      "outputs": [],
      "payable": false,
      "stateMutability": "nonpayable",
      "type": "function"
    },
    {
      "constant": false,
      "inputs": [
        {
          "name": "_minDonation",
          "type": "uint256"
        }
      ],
      "name": "setMinDonation",
      "outputs": [],
      "payable": false,
      "stateMutability": "nonpayable",
      "type": "function"
    },
    {
      "constant": false,
      "inputs": [
        {
          "name": "_periodTarget",
          "type": "uint256"
        }
      ],
      "name": "setPeriodTarget",
      "outputs": [],
      "payable": false,
      "stateMutability": "nonpayable",
      "type": "function"
    },
    {
      "constant": false,
      "inputs": [
        {
          "name": "_purpose",
          "type": "bytes32"
        }
      ],
      "name": "setPurpose",
      "outputs": [],
      "payable": false,
      "stateMutability": "nonpayable",
      "type": "function"
    },
    {
      "constant": false,
      "inputs": [],
      "name": "withdrawPreviousPeriods",
      "outputs": [],
      "payable": false,
      "stateMutability": "nonpayable",
      "type": "function"
    },
    {
      "constant": false,
      "inputs": [],
      "name": "withdrawCurrentPeriod",
      "outputs": [],
      "payable": false,
      "stateMutability": "nonpayable",
      "type": "function"
    },
    {
      "constant": true,
      "inputs": [
        {
          "name": "_periodId",
          "type": "uint256"
        }
      ],
      "name": "getTotalPeriodDonations",
      "outputs": [
        {
          "name": "",
          "type": "uint256"
        }
      ],
      "payable": false,
      "stateMutability": "view",
      "type": "function"
    },
    {
      "constant": true,
      "inputs": [],
      "name": "getPeriodDuration",
      "outputs": [
        {
          "name": "",
          "type": "uint256"
        }
      ],
      "payable": false,
      "stateMutability": "view",
      "type": "function"
    },
    {
      "constant": true,
      "inputs": [],
      "name": "getPeriodTimeLeft",
      "outputs": [
        {
          "name": "",
          "type": "uint256"
        }
      ],
      "payable": false,
      "stateMutability": "view",
      "type": "function"
    },
    {
      "constant": true,
      "inputs": [],
      "name": "getMinDonation",
      "outputs": [
        {
          "name": "",
          "type": "uint256"
        }
      ],
      "payable": false,
      "stateMutability": "view",
      "type": "function"
    },
    {
      "constant": true,
      "inputs": [
        {
          "name": "_address",
          "type": "address"
        }
      ],
      "name": "getAllDonationsOfAddress",
      "outputs": [
        {
          "name": "",
          "type": "uint256"
        }
      ],
      "payable": false,
      "stateMutability": "view",
      "type": "function"
    },
    {
      "constant": true,
      "inputs": [],
      "name": "getDonators",
      "outputs": [
        {
          "name": "",
          "type": "address[]"
        }
      ],
      "payable": false,
      "stateMutability": "view",
      "type": "function"
    },
    {
      "constant": true,
      "inputs": [
        {
          "name": "_address",
          "type": "address"
        },
        {
          "name": "_periodId",
          "type": "uint256"
        }
      ],
      "name": "getAddressDonationInPeriod",
      "outputs": [
        {
          "name": "",
          "type": "uint256"
        }
      ],
      "payable": false,
      "stateMutability": "view",
      "type": "function"
    },
    {
      "constant": true,
      "inputs": [],
      "name": "getCurrentPeriod",
      "outputs": [
        {
          "name": "",
          "type": "uint256"
        }
      ],
      "payable": false,
      "stateMutability": "view",
      "type": "function"
    }
  ],
  "bytecode": "0x608060405266038d7ea4c68000600555600060065534801561002057600080fd5b5060405160808061162c8339810180604052608081101561004057600080fd5b8101908080519060200190929190805190602001909291908051906020019092919080519060200190929190505050336000806101000a81548173ffffffffffffffffffffffffffffffffffffffff021916908373ffffffffffffffffffffffffffffffffffffffff1602179055506000809054906101000a900473ffffffffffffffffffffffffffffffffffffffff1673ffffffffffffffffffffffffffffffffffffffff16600073ffffffffffffffffffffffffffffffffffffffff167f8be0079c531659141344cd1fd0a4f28419497f9722a3daafe3b4186f6b6457e060405160405180910390a383600181905550826002819055508060048190555081600381905550505050506114d28061015a6000396000f3fe608060405260043610610168576000357c01000000000000000000000000000000000000000000000000000000009004806395af66df116100d3578063d065bd721161008c578063d065bd7214610536578063d3855b0c14610561578063dba8293b1461058c578063e5b0b36b146105fb578063f2fde38b1461062c578063fb0c42681461067d57610168565b806395af66df146103f75780639f95ec991461040e578063a9f77e2414610439578063b36fec5714610474578063b470aade1461049f578063bf1482fa146104ca57610168565b806366c3601c1161012557806366c3601c146102b957806370740aab146102f4578063715018a61461031f57806383a6595f146103365780638da5cb5b146103715780638f32d59b146103c857610168565b8063030bb0791461016d578063086146d2146101985780630f1380b0146101c35780631c0e0225146102125780632668357b1461023d5780634895feff14610254575b600080fd5b34801561017957600080fd5b506101826106bb565b6040518082815260200191505060405180910390f35b3480156101a457600080fd5b506101ad6106c1565b6040518082815260200191505060405180910390f35b3480156101cf57600080fd5b506101fc600480360360208110156101e657600080fd5b810190808035906020019092919050505061076b565b6040518082815260200191505060405180910390f35b34801561021e57600080fd5b50610227610788565b6040518082815260200191505060405180910390f35b34801561024957600080fd5b5061025261078e565b005b34801561026057600080fd5b506102a36004803603602081101561027757600080fd5b81019080803573ffffffffffffffffffffffffffffffffffffffff169060200190929190505050610829565b6040518082815260200191505060405180910390f35b3480156102c557600080fd5b506102f2600480360360208110156102dc57600080fd5b81019080803590602001909291905050506108fb565b005b34801561030057600080fd5b50610309610918565b6040518082815260200191505060405180910390f35b34801561032b57600080fd5b5061033461091e565b005b34801561034257600080fd5b5061036f6004803603602081101561035957600080fd5b81019080803590602001909291905050506109f0565b005b34801561037d57600080fd5b50610386610a0d565b604051808273ffffffffffffffffffffffffffffffffffffffff1673ffffffffffffffffffffffffffffffffffffffff16815260200191505060405180910390f35b3480156103d457600080fd5b506103dd610a36565b604051808215151515815260200191505060405180910390f35b34801561040357600080fd5b5061040c610a8d565b005b34801561041a57600080fd5b50610423610b75565b6040518082815260200191505060405180910390f35b34801561044557600080fd5b506104726004803603602081101561045c57600080fd5b8101908080359060200190929190505050610bd6565b005b34801561048057600080fd5b50610489610bf3565b6040518082815260200191505060405180910390f35b3480156104ab57600080fd5b506104b4610bfd565b6040518082815260200191505060405180910390f35b3480156104d657600080fd5b506104df610c03565b6040518080602001828103825283818151815260200191508051906020019060200280838360005b83811015610522578082015181840152602081019050610507565b505050509050019250505060405180910390f35b34801561054257600080fd5b5061054b610c91565b6040518082815260200191505060405180910390f35b34801561056d57600080fd5b50610576610c9b565b6040518082815260200191505060405180910390f35b34801561059857600080fd5b506105e5600480360360408110156105af57600080fd5b81019080803573ffffffffffffffffffffffffffffffffffffffff16906020019092919080359060200190929190505050610ca1565b6040518082815260200191505060405180910390f35b61062a6004803603602081101561061157600080fd5b81019080803560ff169060200190929190505050610d28565b005b34801561063857600080fd5b5061067b6004803603602081101561064f57600080fd5b81019080803573ffffffffffffffffffffffffffffffffffffffff169060200190929190505050610f6e565b005b34801561068957600080fd5b506106b9600480360360208110156106a057600080fd5b81019080803560ff169060200190929190505050610f8d565b005b60035481565b6000426001541115151561073d576040517f08c379a000000000000000000000000000000000000000000000000000000000815260040180806020018281038252601e8152602001807f54686520636f6e7472616374206973206e6f742061637469766520796574000081525060200191505060405180910390fd5b6107666002546107586001544261117b90919063ffffffff16565b61119d90919063ffffffff16565b905090565b600060086000838152602001908152602001600020549050919050565b60055481565b610796610a36565b15156107a157600080fd5b60006107ab6106c1565b9050600060076000838152602001908152602001600020549050600060076000848152602001908152602001600020819055503373ffffffffffffffffffffffffffffffffffffffff166108fc829081150290604051600060405180830381858888f19350505050158015610824573d6000803e3d6000fd5b505050565b6000806108346106c1565b9050600080905060008090505b82811115156108f057600085828501604051602001808373ffffffffffffffffffffffffffffffffffffffff1673ffffffffffffffffffffffffffffffffffffffff166c01000000000000000000000000028152601401828152602001925050506040516020818303038152906040528051906020012090506108e06009600083815260200190815260200160002054846111c790919063ffffffff16565b9250508080600101915050610841565b508092505050919050565b610903610a36565b151561090e57600080fd5b8060038190555050565b60045481565b610926610a36565b151561093157600080fd5b600073ffffffffffffffffffffffffffffffffffffffff166000809054906101000a900473ffffffffffffffffffffffffffffffffffffffff1673ffffffffffffffffffffffffffffffffffffffff167f8be0079c531659141344cd1fd0a4f28419497f9722a3daafe3b4186f6b6457e060405160405180910390a360008060006101000a81548173ffffffffffffffffffffffffffffffffffffffff021916908373ffffffffffffffffffffffffffffffffffffffff160217905550565b6109f8610a36565b1515610a0357600080fd5b8060058190555050565b60008060009054906101000a900473ffffffffffffffffffffffffffffffffffffffff16905090565b60008060009054906101000a900473ffffffffffffffffffffffffffffffffffffffff1673ffffffffffffffffffffffffffffffffffffffff163373ffffffffffffffffffffffffffffffffffffffff1614905090565b610a95610a36565b1515610aa057600080fd5b6000610aaa6106c1565b90506000809050600060065490505b82811015610b0f57610ae76007600083815260200190815260200160002054836111c790919063ffffffff16565b9150600060076000838152602001908152602001600020819055508080600101915050610ab9565b50610b2460018361117b90919063ffffffff16565b6006819055503373ffffffffffffffffffffffffffffffffffffffff166108fc829081150290604051600060405180830381858888f19350505050158015610b70573d6000803e3d6000fd5b505050565b600080610bbb610baa600254610b9c6001610b8e6106c1565b6111c790919063ffffffff16565b6111e890919063ffffffff16565b6001546111c790919063ffffffff16565b9050610bd0428261117b90919063ffffffff16565b91505090565b610bde610a36565b1515610be957600080fd5b8060048190555050565b6000600254905090565b60025481565b6060600a805480602002602001604051908101604052809291908181526020018280548015610c8757602002820191906000526020600020905b8160009054906101000a900473ffffffffffffffffffffffffffffffffffffffff1673ffffffffffffffffffffffffffffffffffffffff1681526020019060010190808311610c3d575b5050505050905090565b6000600554905090565b60065481565b6000600960008484604051602001808373ffffffffffffffffffffffffffffffffffffffff1673ffffffffffffffffffffffffffffffffffffffff166c010000000000000000000000000281526014018281526020019250505060405160208183030381529060405280519060200120815260200190815260200160002054905092915050565b348160ff166005540211151515610d8a576040517f08c379a00000000000000000000000000000000000000000000000000000000081526004018080602001828103825260238152602001806114356023913960400191505060405180910390fd5b8060ff166000101515610de8576040517f08c379a00000000000000000000000000000000000000000000000000000000081526004018080602001828103825260228152602001806114586022913960400191505060405180910390fd5b6000610df26106c1565b90506000610e0c8360ff163461119d90919063ffffffff16565b905060008090505b8360ff168160ff161015610f605760008160ff1684019050610e528360076000848152602001908152602001600020546111c790919063ffffffff16565b6007600083815260200190815260200160002081905550610e8f8360086000848152602001908152602001600020546111c790919063ffffffff16565b600860008381526020019081526020016000208190555060003382604051602001808373ffffffffffffffffffffffffffffffffffffffff1673ffffffffffffffffffffffffffffffffffffffff166c0100000000000000000000000002815260140182815260200192505050604051602081830303815290604052805190602001209050610f3a8460096000848152602001908152602001600020546111c790919063ffffffff16565b600960008381526020019081526020016000208190555050508080600101915050610e14565b50610f69611226565b505050565b610f76610a36565b1515610f8157600080fd5b610f8a8161133a565b50565b8060ff166000101515610feb576040517f08c379a000000000000000000000000000000000000000000000000000000000815260040180806020018281038252602d81526020018061147a602d913960400191505060405180910390fd5b6000610ff56106c1565b905060008090506000600190505b8360ff168160ff1611151561112e576000338260ff168501604051602001808373ffffffffffffffffffffffffffffffffffffffff1673ffffffffffffffffffffffffffffffffffffffff166c01000000000000000000000000028152601401828152602001925050506040516020818303038152906040528051906020012090506110c36009600083815260200190815260200160002054600860008560ff16880181526020019081526020016000205461117b90919063ffffffff16565b600860008460ff1687018152602001908152602001600020819055506111056009600083815260200190815260200160002054846111c790919063ffffffff16565b925060006009600083815260200190815260200160002081905550508080600101915050611003565b503373ffffffffffffffffffffffffffffffffffffffff166108fc829081150290604051600060405180830381858888f19350505050158015611175573d6000803e3d6000fd5b50505050565b600082821115151561118c57600080fd5b600082840390508091505092915050565b600080821115156111ad57600080fd5b600082848115156111ba57fe5b0490508091505092915050565b60008082840190508381101515156111de57600080fd5b8091505092915050565b6000808314156111fb5760009050611220565b6000828402905082848281151561120e57fe5b0414151561121b57600080fd5b809150505b92915050565b600b60003373ffffffffffffffffffffffffffffffffffffffff1673ffffffffffffffffffffffffffffffffffffffff16815260200190815260200160002060009054906101000a900460ff161515611338576001600b60003373ffffffffffffffffffffffffffffffffffffffff1673ffffffffffffffffffffffffffffffffffffffff16815260200190815260200160002060006101000a81548160ff021916908315150217905550600a3390806001815401808255809150509060018203906000526020600020016000909192909190916101000a81548173ffffffffffffffffffffffffffffffffffffffff021916908373ffffffffffffffffffffffffffffffffffffffff160217905550505b565b600073ffffffffffffffffffffffffffffffffffffffff168173ffffffffffffffffffffffffffffffffffffffff161415151561137657600080fd5b8073ffffffffffffffffffffffffffffffffffffffff166000809054906101000a900473ffffffffffffffffffffffffffffffffffffffff1673ffffffffffffffffffffffffffffffffffffffff167f8be0079c531659141344cd1fd0a4f28419497f9722a3daafe3b4186f6b6457e060405160405180910390a3806000806101000a81548173ffffffffffffffffffffffffffffffffffffffff021916908373ffffffffffffffffffffffffffffffffffffffff1602179055505056fe446f6e6174696f6e206973206c657373207468616e206d696e696d756d2076616c75654d75737420646f6e61746520746f206174206c65617374206f6e6520706572696f644d75737420726566756e6420646f6e6174696f6e2066726f6d206174206c65617374206f6e6520706572696f64a165627a7a72305820da4d54ca97f0053c9ea7053a944f6def246b9b41f7244806250f8d80a9c583c80029",
  "source": "pragma solidity ^0.5.2;\r\n\r\nimport \"../node_modules/openzeppelin-solidity/contracts/ownership/Ownable.sol\";\r\nimport \"../node_modules/openzeppelin-solidity/contracts/math/SafeMath.sol\";\r\n\r\n\r\ncontract EtherPatron is Ownable {\r\n    uint256 private startTimestamp;\r\n    uint256 public periodDuration;\r\n    uint256 public periodTarget; \r\n    bytes32 public purpose;\r\n    \r\n    uint256 public minDonation = 0.001 ether;    \r\n\r\n    uint256 public lastWithdrawnPeriod = 0;   \r\n    \r\n\r\n    using SafeMath for uint256;\r\n\r\n    mapping(uint256 => uint256) private periodToAllowedWithdrawal; \r\n    mapping(uint256 => uint256) private periodToDonations;\r\n\r\n    mapping(bytes32 => uint256) private hashedDonations;\r\n\r\n    address[] private donators;\r\n    mapping(address => bool) private addressToIsDonator;\r\n    \r\n    constructor(uint256 _startTimestamp, uint256 _periodDuration, uint256 _periodTarget, bytes32 _purpose) public {\r\n        startTimestamp = _startTimestamp;\r\n        periodDuration = _periodDuration;\r\n        purpose = _purpose;\r\n        periodTarget = _periodTarget;\r\n    }\r\n\r\n    function donate(uint8 _periods) external payable {\r\n        require(minDonation * _periods <= msg.value, \"Donation is less than minimum value\");\r\n        require(0 < _periods, \"Must donate to at least one period\");\r\n\r\n        uint256 currentPeriod = getCurrentPeriod();        \r\n        uint256 donationPerPeriod = msg.value.div(_periods);\r\n\r\n        for (uint8 i = 0; i < _periods; i++) {            \r\n            uint256 targetPeriod = currentPeriod + i;\r\n            periodToAllowedWithdrawal[targetPeriod] = periodToAllowedWithdrawal[targetPeriod].add(donationPerPeriod);\r\n\r\n            periodToDonations[targetPeriod] = periodToDonations[targetPeriod].add(donationPerPeriod);\r\n\r\n            bytes32 hashedDonation = keccak256(abi.encodePacked(msg.sender, targetPeriod));\r\n            hashedDonations[hashedDonation] = hashedDonations[hashedDonation].add(donationPerPeriod);\r\n        }\r\n\r\n        addDonatorToList();\r\n    }\r\n\r\n    function cancelDonations(uint8 _periods) external {\r\n        require(0 < _periods, \"Must refund donation from at least one period\");\r\n\r\n        uint256 currentPeriod = getCurrentPeriod();\r\n        uint256 sumToRefund = 0;\r\n\r\n        // Starts at 1 >> can't refund current period\r\n        for (uint8 i = 1; i <= _periods; i++) {\r\n            bytes32 hashedDonation = keccak256(abi.encodePacked(msg.sender, currentPeriod + i));\r\n\r\n            periodToDonations[currentPeriod + i] = periodToDonations[currentPeriod + i].sub(hashedDonations[hashedDonation]);\r\n\r\n            sumToRefund = sumToRefund.add(hashedDonations[hashedDonation]);\r\n            hashedDonations[hashedDonation] = 0;            \r\n        }\r\n\r\n        msg.sender.transfer(sumToRefund);\r\n    }\r\n\r\n    function setMinDonation(uint256 _minDonation) external onlyOwner {\r\n        minDonation = _minDonation;\r\n    }\r\n\r\n    function setPeriodTarget(uint256 _periodTarget) external onlyOwner {\r\n        periodTarget = _periodTarget;\r\n    }\r\n\r\n    function setPurpose(bytes32 _purpose) external onlyOwner {\r\n        purpose = _purpose;\r\n    }\r\n\r\n    function withdrawPreviousPeriods() external onlyOwner {\r\n        uint256 currentPeriod = getCurrentPeriod();\r\n        uint256 sumToWithdraw = 0;\r\n\r\n        for (uint256 i = lastWithdrawnPeriod; i < currentPeriod; i++) {\r\n            sumToWithdraw = sumToWithdraw.add(periodToAllowedWithdrawal[i]);\r\n            periodToAllowedWithdrawal[i] = 0;\r\n        }       \r\n\r\n        lastWithdrawnPeriod = currentPeriod.sub(1); \r\n        msg.sender.transfer(sumToWithdraw);\r\n    }\r\n\r\n    function withdrawCurrentPeriod() external onlyOwner {\r\n        uint256 currentPeriod = getCurrentPeriod();\r\n        uint256 sumToWithdraw = periodToAllowedWithdrawal[currentPeriod];\r\n        periodToAllowedWithdrawal[currentPeriod] = 0;\r\n        msg.sender.transfer(sumToWithdraw);\r\n    }\r\n\r\n    function getTotalPeriodDonations(uint256 _periodId) external view returns (uint256) {\r\n        return periodToDonations[_periodId];\r\n    }\r\n\r\n    function getPeriodDuration() external view returns (uint256) {\r\n        return periodDuration;\r\n    }\r\n\r\n    function getPeriodTimeLeft() external view returns (uint256) {\r\n        uint256 endOfThisPeriod = startTimestamp.add(getCurrentPeriod().add(1).mul(periodDuration));\r\n        return endOfThisPeriod.sub(now);       \r\n    }\r\n\r\n    function getMinDonation() external view returns (uint256) {\r\n        return minDonation;\r\n    }\r\n\r\n    function getAllDonationsOfAddress(address _address) external view returns (uint256) {\r\n        uint256 currentPeriod = getCurrentPeriod();\r\n        uint256 totalDonated = 0;\r\n        for (uint256 i = 0; i <= currentPeriod; i++) {\r\n            bytes32 hashedDonation = keccak256(abi.encodePacked(_address, currentPeriod + i));\r\n            totalDonated = totalDonated.add(hashedDonations[hashedDonation]);\r\n        }\r\n\r\n        return totalDonated;\r\n    }   \r\n\r\n    function getDonators() external view returns (address[] memory) {\r\n        return donators;\r\n    }\r\n\r\n    function getAddressDonationInPeriod(address _address, uint256 _periodId) external view returns (uint256) {\r\n        return hashedDonations[keccak256(abi.encodePacked(_address, _periodId))];\r\n    }\r\n\r\n    function getCurrentPeriod() public view returns(uint256) {\r\n        require(startTimestamp <= now, \"The contract is not active yet\");\r\n        return now.sub(startTimestamp).div(periodDuration);\r\n    }\r\n\r\n    function addDonatorToList() private {\r\n        if (!addressToIsDonator[msg.sender]) {\r\n            addressToIsDonator[msg.sender] = true;\r\n            donators.push(msg.sender);\r\n        }\r\n    }\r\n\r\n}",
  "sourcePath": "D:/_GameDev/Solidity/ether-patron/contracts/EtherPatron.sol",
  "compiler": {
    "name": "solc",
    "version": "0.5.2+commit.1df8f40c.Emscripten.clang"
  },
  "schemaVersion": "3.0.5",
  "updatedAt": "2019-05-12T14:46:39.740Z",
  "devdoc": {
    "methods": {
      "isOwner()": {
        "return": "true if `msg.sender` is the owner of the contract."
      },
      "owner()": {
        "return": "the address of the owner."
      },
      "renounceOwnership()": {
        "details": "Allows the current owner to relinquish control of the contract. It will not be possible to call the functions with the `onlyOwner` modifier anymore."
      },
      "transferOwnership(address)": {
        "details": "Allows the current owner to transfer control of the contract to a newOwner.",
        "params": {
          "newOwner": "The address to transfer ownership to."
        }
      }
    }
  },
  "userdoc": {
    "methods": {
      "renounceOwnership()": {
        "notice": "Renouncing ownership will leave the contract without an owner, thereby removing any functionality that is only available to the owner."
      }
    }
  }
}